:020000040000FA
:100000000C94E1030C9409040C9409040C94090465
:100010000C9409040C9409040C9409040C9409042C
:100020000C9409040C942C280C94E9240C94582565
:100030000C9409040C9409040C9409040C9409040C
:100040000C9409040C9409040C9409040C940904FC
:100050000C9409040C9409040C9409040C94E227F0
:100060000C9409040C94B0270C948A270C9409046E
:100070000C9409040C9409040C9409040C940904CC
:100080000C9409040C9409040C9409040C940904BC
:100090000C9409040C9409040C9409040C940904AC
:1000A0000C9409040C9409040C9409044E414E4923
:1000B0004E495459494E46CDCCCC3D0AD7233C1726
:1000C000B7D13877CC2B329595E6241FB14F0A0073
:1000D0000020410000C84200401C4620BCBE4CCA63
:1000E0001B0E5AAEC59D7468616E646C6553657273
:1000F00069616C3A20004661696C652E2E2E2044A1
:100100006973636F6E6E65637465640053756363D2
:100110006573732E2E2E00416C6947656E696520EC
:10012000526573706F6E73653A20002C22746F44B1
:1001300065766963654154223A22416C6947656E70
:100140006965227D004661696C652E2E2E2044690A
:1001500073636F6E6E656374656400537563636586
:1001600073732E2E2E00447565724F5320526573A3
:10017000706F6E73653A20002C22746F4465766947
:1001800063654154223A22447565724F53227D00C3
:100190004661696C652E2E2E20446973636F6E6E06
:1001A000656374656400537563636573732E2E2EE7
:1001B000004D494F5420526573706F6E73653A203D
:1001C000002C22746F4465766963654154223A229B
:1001D0004D494F54227D004661696C652E2E2E20BC
:1001E000446973636F6E6E65637465640053756311
:1001F000636573732E2E2E00526573706F6E736578
:100200003A2000444556494345204E4F5420434F21
:100210004E4E454354204F52204D5347204C494D9C
:10022000495400697350617273656400677073208C
:1002300069735061727365640061687273206973D9
:100240005061727365640073657453776974636891
:1002500020697350617273656400636865636B4EF7
:10026000756D20636F756E743A20007374725769F0
:10027000646765747350617273652069735061724D
:100280007365640073746174653A20006368656324
:100290006B4E756D20636F756E743A2000696E74D5
:1002A0005769646765747350617273652069735030
:1002B000617273656400636865636B4E756D20637E
:1002C0006F756E743A20007267625769646765746F
:1002D0007350617273652069735061727365640055
:1002E000636865636B4E756D20636F756E743A203D
:1002F000006A6F79576964676574735061727365DA
:1003000020697350617273656400636865636B4E46
:10031000756D20636F756E743A2000746162576961
:10032000646765747350617273652069735061729C
:10033000736564005F736574446174613A200020E2
:100340003D3D3D3D003D3D3D3D5F77436F756E74E6
:100350005F7374723A200067657456657273696FD3
:100360006E206973506172736564006865617274B0
:1003700042656174206973506172736564007375BE
:100380006D6D6172795F646174613A200073756D9F
:100390006D6172795F646174613A20006E646566B4
:1003A00020424C494E4B45525F41524455494E4FB5
:1003B0004A534F4E00706172736520646174613AF4
:1003C00020004552524F523A2000416C6947656EF9
:1003D000696520706172736520646174613A200000
:1003E000223A002200223A0022004552524F523A4D
:1003F00020002200223A220022005D20005B0046FD
:10040000726565686561703A200000000000240094
:1004100027002A002D0030000000000200090F0014
:1004200000030401000C00000000000000000000B8
:1004300000000000000000080B000202020000099A
:10044000040000010202000005240010010524013F
:10045000010104240206052406000107058103109A
:10046000004009040100020A0000000705020240E2
:100470000000070583024000000403090412010084
:1004800002EF0201404123418000010102030141CA
:10049000726475696E6F204C4C43004172647569DB
:1004A0006E6F2059756E0046726565686561703AB9
:1004B00020005D3A20005F706172616D5B005D3A03
:1004C00020005F706172616D315B002C206164649B
:1004D000725F656E643A20005D3A20005F70617261
:1004E000616D305B002C20616464725F656E643AFC
:1004F00020005D3A20005F706172616D305B0073B7
:10050000657269616C697A65205F7265714E616DB3
:10051000653A200073657269616C697A65205F6471
:100520006174613A20007374726C656E3A200073D6
:1005300074726C656E3A200064617461506172730C
:10054000653A20007374726C656E3A2000737472A1
:100550006C656E3A20006461746150617273653A33
:10056000200045535020415420696E697400706129
:1005700072616D4E756D3A20007265714E616D65E8
:100580003A200067657453746174653A2000312C19
:10059000003D00424C494E4B45525F574946490089
:1005A0002B00415400000000002300260029002CED
:1005B000002F0000000000250028002B002E003135
:1005C00000040404040403040502020202040302FA
:1005D00002020206060606060604040202020404DB
:1005E0000408020110408040102040804080080232
:1005F0000401804020100201108010204040202083
:100600002020203D3E2068747470733A2F2F676954
:10061000746875622E636F6D2F626C696E6B6572A4
:100620002D696F742F626C696E6B65722D6C6962D7
:10063000726172790A0020202020446F776E6C6FFF
:100640006164206C617465737420626C696E6B65A3
:1006500072206C6962726172792068657265210A24
:100660000020202020546F2062657474657220750C
:10067000736520626C696E6B65722077697468209F
:10068000796F757220496F542070726F6A65637458
:10069000210A000A00626C696E6B657220760000A8
:1006A00053657269616C4D51545420696E69746967
:1006B000616C697A65642E2E2E002200223A220097
:1006C0002200464F524D4154204441544120534949
:1006D0005A45204953204D4158205448414E204C02
:1006E000494D495400646174612E6C656E6774688D
:1006F00028293A20007374726C656E285F73656EEA
:1007000064427566293A20006175746F466F726D98
:1007100061744461746120646174613A20005345DE
:100720004E442044415441204259544553204D41A8
:1007300058205448414E204C494D4954210072657F
:1007400073706F6E736520746F20416C6947656EBE
:1007500069653A20007D007B002C007B002C007B2B
:10076000002C007B002C007B002C007B002C007BED
:10077000002C007B002C0053454E44204441544142
:10078000204259544553204D4158205448414E2051
:100790004C494D4954210050726F746F207072693A
:1007A0006E742E2E2E007072696E743A2000220034
:1007B000222C226E756D223A00223A22002200007D
:1007C000A42811241FBECFEFDAE0DEBFCDBF12E0B8
:1007D000A0E0B1E0EAEBFBE602C005900D92A23E7C
:1007E000B107D9F725E0A2EEB2E001C01D92AE3507
:1007F000B207E1F713E0C1EED3E004C02197FE0198
:100800000E94C634C03ED107C9F70E94E3290C9468
:10081000DB350C94000080913F04882341F081E097
:100820002091420430914304232B09F480E0089581
:1008300080913F04882349F081E020914204309167
:1008400043042230310509F080E008958091590475
:10085000882359F08091550490915604DC01ED9164
:10086000FC910084F185E02D099490E080E00895EA
:1008700080915904882389F0809155049091560401
:10088000DC01ED91FC910484F585E02D099582E071
:1008900090E090935804809357040895FC01809150
:1008A0004B03882311F13FB7F89482E08093E9006D
:1008B0002091F200822F90E01816190614F481E0BE
:1008C00090E0882339F0289844E640934A03409109
:1008D000F1004083222339F02091F200211103C05E
:1008E0002BE62093E8003FBF08958FEF9FEF089518
:1008F0002FB7F89483E08093E9009091E800892F66
:10090000807295FF04C09091F20080E4891B2FBF94
:1009100008958091420381110DC082E080933E03CF
:1009200084E080933F03109241031092400381E0E2
:10093000809342038EE393E0089508954091360337
:1009400050913703209134033091350342175307F8
:10095000B4F49091E8009570E1F39091E80092FD75
:1009600019C08093F100809136039091370301966E
:100970008F739927892B19F48EEF8093E80080916B
:100980003603909137030196909337038093360393
:1009900081E0089580E00895EF92FF920F931F93F6
:1009A000CF93DF93F82E192FE62E042F81E0860FC8
:1009B000880F0E949E0483E00E949E04CF2DD12FB9
:1009C000EC0EFD2EF11CCE15DF05B9F007FF13C0AC
:1009D000FE0184910E949E04182F80E00E949E04D4
:1009E000812321968111EFCFDF91CF911F910F913C
:1009F000FF90EF9008958881EDCF81E0F5CFDF92F1
:100A0000EF92FF920F931F93CF93DF93D82E8A011B
:100A1000EB017B01E40EF51ECE15DF0559F0D7FE84
:100A200012C0FE0184910E949E0421968111F4CF90
:100A30000FEF1FEFC801DF91CF911F910F91FF9032
:100A4000EF90DF9008958881EECF0F931F93CF939F
:100A5000DF931F92CDB7DEB782E0898342E450E096
:100A600067E374E080E80E94FF040E948904DC01CF
:100A700012960D911C910115110589F0D801ED9187
:100A8000FC910280F381E02DBE016F5F7F4FC801B2
:100A9000099597FD04C0F80100851185ECCF898187
:100AA0000F90DF91CF911F910F910895615030F019
:100AB0002091F100FC0120830196F8CF289884E66C
:100AC00080934A030895EF92FF920F931F93CF9361
:100AD000DF938C017B01D0E0C0E0F701EC0FFD1F3C
:100AE0006491662361F0D801ED91FC910190F08151
:100AF000E02DC8010995892B11F02196EECFCE018A
:100B0000DF91CF911F910F91FF90EF900895AF92D9
:100B1000BF92CF92DF92EF92FF920F931F93CF93EA
:100B2000DF936C017B018B01040F151FEB015E014C
:100B3000AE18BF08C017D10759F06991D601ED91E1
:100B4000FC910190F081E02DC6010995892B79F780
:100B5000C501DF91CF911F910F91FF90EF90DF9032
:100B6000CF90BF90AF900895FC01538D448D252FF9
:100B700030E0842F90E0821B930B541710F0CF9637
:100B8000089501970895FC01918D828D981761F069
:100B9000A28DAE0FBF2FB11D5D968C91928D9F5F80
:100BA0009F73928F90E008958FEF9FEF0895FC015F
:100BB000918D828D981731F0828DE80FF11D858D12
:100BC00090E008958FEF9FEF0895FC01918D228DA5
:100BD000892F90E0805C9F4F821B91098F7399272A
:100BE00008958CE493E00E94E50521E0892B09F447
:100BF00020E0822F089580E090E0892B29F00E9468
:100C0000F10581110C9400000895FC01A48DA80F3A
:100C1000B92FB11DA35ABF4F2C91848D90E001963E
:100C20008F739927848FA689B7892C93A089B1895E
:100C30008C9182748C93938D848D981306C0028856
:100C4000F389E02D80818F7D80830895EF92FF925C
:100C50000F931F93CF93DF93EC0181E0888F9B8DDF
:100C60008C8D981319C0E889F989808185FF14C09B
:100C70009FB7F894EE89FF896083E889F9898081BC
:100C8000827480839FBF81E090E0DF91CF911F91BC
:100C90000F91FF90EF900895F62E0B8D10E00F5FEF
:100CA0001F4F0F731127E02E8C8D8E110CC00FB6C5
:100CB00007FCFACFE889F989808185FFF5CFCE015D
:100CC0000E940506F1CFEB8DEC0FFD2FF11DE35ACD
:100CD000FF4FF0829FB7F8940B8FEA89FB898081E0
:100CE0008062CFCFCF93DF93EC01888D8823B9F05A
:100CF000AA89BB89E889F9898C9185FD03C0808127
:100D000086FD0DC00FB607FCF7CF8C9185FFF2CFA3
:100D1000808185FFEDCFCE010E940506E9CFDF91EE
:100D2000CF910895CF93DF931F92CDB7DEB769833C
:100D3000DC01ED91FC910280F381E02D41E050E077
:100D4000BE016F5F7F4F09950F90DF91CF9108959E
:100D500083E08093E9008091F200882319F08AE310
:100D60008093E80008950E94780490E00895CF935E
:100D7000DF931F92CDB7DEB7FC018485958597FD83
:100D800008C02FEF3FEF358724870F90DF91CF9179
:100D90000895CE0101960E944E04019719F48981AD
:100DA00090E0F3CF8FEF9FEFF0CF0F931F93CF9390
:100DB000DF931F92CDB7DEB78C01FC01848595854A
:100DC00097FF0BC0CE0101960E944E04019771F46B
:100DD000898190E0F80195878487F801848595855D
:100DE0000F90DF91CF911F910F9108958FEF9FEF9B
:100DF000F1CFFC018485958597FD0BC09FB7F894D2
:100E000082E08093E9008091F2009FBF90E001961C
:100E100008959FB7F89482E08093E9008091F200F2
:100E20009FBF90E00895282F30E0F901E85EFB4F66
:100E30009491F901E052FA4F84912F533A4FF901FE
:100E40002491222309F430C09923E9F091509F3076
:100E5000D0F4E92FF0E0E15DF84F0C94C6345D0763
:100E600061073E07550759074307430743076407D0
:100E70006A076E077207780743077C079091800026
:100E80009F7790938000E22FF0E0EE0FFF1FED546C
:100E9000FA4FA591B4919FB7F894EC91611132C0CB
:100EA00080958E238C939FBF0895909180009F7DA5
:100EB000E8CF90918000977FE4CF94B59F7794BD61
:100EC000E2CF94B59F7DFBCF909190009F77909358
:100ED0009000D9CF909190009F7DF9CF9091900094
:100EE000977FF5CF9091C0009F779093C000CBCFB4
:100EF0009091C0009F7DF9CF9091C200977F909311
:100F0000C200C1CF8E2BCECFCF93DF9390E0FC01F8
:100F1000E052FA4F24918F539A4FFC018491882319
:100F2000D1F090E0880F991FFC01E65FFB4FA5917F
:100F3000B491FC01ED54FA4FC591D49161110EC0EA
:100F40009FB7F8948C91E22FE0958E238C932881A3
:100F5000E223E8839FBFDF91CF9108958FB7F89484
:100F6000EC91E22BEC938FBFF6CF3FB7F8948091D2
:100F7000300390913103A0913203B091330326B531
:100F8000A89B05C02F3F19F00196A11DB11D3FBFC1
:100F9000BA2FA92F982F8827BC01CD01620F711D90
:100FA000811D911D42E0660F771F881F991F4A958A
:100FB000D1F708958F929F92AF92BF92CF92DF9216
:100FC000EF92FF924B015C010E94B5076B017C011F
:100FD0000E94B5076C197D098E099F09683E734010
:100FE00081059105A8F321E0821A9108A108B108B2
:100FF00088EEC80E83E0D81EE11CF11C8114910418
:10100000A104B10429F7FF90EF90DF90CF90BF903B
:10101000AF909F908F9008958F929F92AF92BF92C2
:10102000CF92DF92EF92FF920F931F93CF93DF93B4
:101030006C017B018A0180910B01882309F45CC05B
:1010400080914B03882309F457C080913A0380FFB5
:1010500005C08091E00082608093E000E801B12C3F
:101060008AEFA82E93E0892E2AE3922E209711F47E
:10107000BB20D9F10E94780481110AC0AA94AA2049
:10108000D9F161E070E080E090E00E94DA07EECFF5
:101090008C171D0611F00CF08C2F9FB7F8948092DE
:1010A000E9002091E80025FD02C09FBFDFCF282F77
:1010B00030E0C21BD30BF701815020F041914093E7
:1010C000F100FACFE20EF31EBB2021F09092E8006F
:1010D000B12CEBCF8091E80085FDE7CF9092E8003E
:1010E000BB24B394209709F3F3CF5D9884E68093F3
:1010F0003903101611063CF081E090E0F60193836D
:10110000828310E000E0C801DF91CF911F910F9121
:10111000FF90EF90DF90CF90BF90AF909F908F9017
:1011200008952FB7F89460912C0370912D0380914E
:101130002E0390912F032FBF089520912903309102
:101140002A032817390771F4909128038091270307
:10115000981741F0E0912803F0E0E951FD4F8081BC
:1011600090E008958FEF9FEF08950895EF92FF921A
:101170000F931F93CF93DF93DC015C96ED90FC906F
:101180005D97E114F10479F481E090E013969C936B
:101190008E93129790E080E0DF91CF911F910F9195
:1011A000FF90EF9008955196ED91FC9152975096D3
:1011B0008C915097982F90950FB75E962C915E97D3
:1011C000122F127021FD6095F8942081112319F1DE
:1011D000282B2083E7012197F1F728E0462F50E0E4
:1011E000308160FF1AC0382B3083E7012197F1F777
:1011F000BA0175956795215089F7112381F0808197
:10120000892380830FBF5C968D919C910197F1F7A4
:1012100081E090E0C1CF2923DCCF3923E5CF908155
:10122000892BEFCF2091290330912A032817390702
:1012300071F4809127032091280390E0805C9F4FF8
:10124000821B910960E470E00E949034089590E060
:1012500080E008952091290330912A032817390747
:10126000B9F49091280380912703981789F0E091B1
:101270002803F0E0E951FD4F80812091280330E000
:101280002F5F3F4F2F7333272093280390E008955B
:101290008FEF9FEF0895CF93DF93FC01828D938DA5
:1012A000892B41F1A0912903B0912A03AE17BF0702
:1012B00009F1109751F05396CD91DC915497988194
:1012C00055968C91809589238883868D8E7F868F15
:1012D0001092270310922803F0932A03E093290326
:1012E000A389B4898C919589892B8C9381E0DF91B6
:1012F000CF91089580E0FBCF90E080E00895DC017D
:10130000ED91FC910280F381E02D0994FC0115829E
:101310001782108616828481882349F0808191810A
:10132000DC01ED91FC910480F581E02D0994089594
:10133000DC0118962C911897222349F08D919C91ED
:10134000DC01ED91FC910280F381E02D09948CE7A2
:1013500091E00895CF92DF92EF92FF92CF93DF93C7
:10136000EC010E9491086B017C018A819B81DC0168
:10137000ED91FC910284F385E02D099597FF0DC056
:101380000E9491086C197D098E099F09683E73407F
:101390008105910550F38FEF9FEFDF91CF91FF9083
:1013A000EF90DF90CF900895FC0117820895FC0123
:1013B000878190E0089521E0DC0117962C93179720
:1013C000ED91FC910284F385E02D0994FC012681C6
:1013D000222319F084819581089590E080E008959A
:1013E000FB0101900020E9F73197AF01461B570B35
:1013F000DC01ED91FC910280F381E02D09940E94C3
:101400000B04882341F06AE771E0809140049091D9
:1014100041040C94F0090895CF93DF93EC010E94EE
:101420000B04882359F0BE0180914004909141043F
:101430000E946305DF91CF910C94FF09DF91CF915A
:1014400008958F929F92AF92BF92EF92FF920F9367
:101450001F93CF93DF93CDB7DEB7A1970FB6F89464
:10146000DEBF0FBECDBF7C01FA01CB0119A2223035
:1014700008F42AE08E010F5D1F4F822E912CB12CB3
:10148000A12CBF01A50194010E94A434F901CA0155
:101490006A300CF5605DD8016E938D01232B242BEF
:1014A000252B79F790E080E0109721F0BD01C7016E
:1014B0000E94F009A1960FB6F894DEBF0FBECDBF13
:1014C000DF91CF911F910F91FF90EF90BF90AF9060
:1014D0009F908F900895695CDECFCF92DF92EF925C
:1014E000FF920F931F93CF93DF93EC016A017B016F
:1014F000E881F9810190F081E02D6DE209958C0180
:1015000044275527BA014C195D096E097F092AE065
:10151000CE010E94210A800F911FDF91CF911F9170
:101520000F91FF90EF90DF90CF9008950F931F934E
:10153000CF93DF93EC01FB01448155816081718180
:10154000E881F9810280F381E02D09958C016AE739
:1015500071E0CE010E94F009800F911FDF91CF91C1
:101560001F910F9108956115710511F00C94F00908
:1015700090E080E00895CF93DF93EC010E940B048C
:10158000882359F0BE0180914004909141040E944B
:10159000B30ADF91CF910C94FF09DF91CF910895A9
:1015A0000F931F93CF93DF938C01EB010E940B04E9
:1015B000882371F0B80180914004909141040E9409
:1015C0006305CE01DF91CF911F910F910C94BB0A5F
:1015D000DF91CF911F910F9108950E940B048823F2
:1015E000D9F06DEF73E080914004909141040E9426
:1015F00063050E949108AB01BC012AE08091400480
:10160000909141040E94210A6AEF73E080914004A6
:10161000909141040C9463050895CF93DF93EC01FE
:101620000E940B04882379F00E94ED0A6AEE73E0B1
:1016300080914004909141040E946305CE01DF91A6
:10164000CF910C940C0ADF91CF9108950F931F93C3
:10165000CF93DF93EC010E9491080A851B852C85AE
:101660003D85601B710B820B930B64317105810505
:10167000910598F48985853158F083E092E00E94C5
:101680000D0B90E080E0DF91CF911F910F910895B5
:101690008F5F898781E090E0F6CF1986FBCFCF93EB
:1016A000DF93EC010E941804882339F00E94ED0AB0
:1016B000CE01DF91CF910C940C0ADF91CF91089568
:1016C0000F931F93CF93DF93EC018B010E941804BB
:1016D000882351F00E94ED0AB801CE01DF91CF912D
:1016E0001F910F910C94D00ADF91CF911F910F9110
:1016F0000895EF92FF920F931F93CF93DF93EC0126
:101700007B01442399F00E94260B8C01892B71F4F4
:101710000E9491086A877B878C879D87C801DF912B
:10172000CF911F910F91FF90EF9008950E94910823
:101730006A877B878C879D87B70188EF91E00E943D
:10174000600BE881F9810284F385E02DCE010995D3
:101750008C01892BB1F08DEE91E00E944F0B0A8035
:10176000DB81C02DE114F10421F0B701CE010E940C
:10177000F0096AE771E0CE010E94F00901E010E093
:10178000CDCF87ED91E00E944F0BC8CF462F50E0A0
:1017900070E060E02AE00C94210A8F929F92AF9251
:1017A000BF92CF92DF92EF92FF920F931F93CF934E
:1017B000DF937C01EB016C0182E0C80ED11C470174
:1017C000E5E08E0E911C10E000E0F60161916F01E2
:1017D000CE010E94C60B5C01E881F9810190F08185
:1017E000E02D6EE2CE0109958A0D9B1D080F191F91
:1017F000C814D90451F7F7016581CE010E94C60BC8
:10180000800F911FDF91CF911F910F91FF90EF906B
:10181000DF90CF90BF90AF909F908F9008950F93DF
:101820001F93CF938C01C62F0E9418048823E9F0E0
:101830000E94ED0A0E940B048823B9F0B801809140
:101840004004909141040E9463050E940B04882388
:1018500061F06C2F80914004909141040E94C60B6E
:10186000CF911F910F910C94FF09CF911F910F9170
:101870000895AB01770F660B770B77FD0C946D0A1B
:101880002AE00C94210A9F92AF92BF92CF92DF92EE
:10189000EF92FF920F931F93CF93DF935C01962EED
:1018A0006A01E9010E941804882309F453C00E94C8
:1018B000ED0A0E940B04882309F44CC0B501809105
:1018C0004004909141040E9463050E940B04882308
:1018D00009F440C0692D80914004909141040E9418
:1018E000C60B0E940B048823A9F1B6018091400425
:1018F000909141040E9463050E940B04882351F1DA
:10190000BE0180914004909141040E94B30A0E945C
:101910000B048823F9F0B8018091400490914104B0
:101920000E9463050E940B048823A1F0B7018091F7
:101930004004909141040E94390CDF91CF911F9196
:101940000F91FF90EF90DF90CF90BF90AF909F905E
:101950000C94FF09DF91CF911F910F91FF90EF90B1
:10196000DF90CF90BF90AF909F9008950F931F93FB
:10197000CF93DF9300D0CDB7DEB700914004109134
:1019800041048091580590915905009711F48EE516
:1019900095E0AE014F5F5F4F481B590B052E000CC1
:1019A000660B770B2AE0C8010E94210A6AE771E002
:1019B000C8010E94F0090F900F90DF91CF911F9105
:1019C0000F9108950E941804882391F00E94ED0A57
:1019D0006FEF73E080914004909141040E94630591
:1019E0008091420490914304892B11F00C94B60C21
:1019F0000895CF93DF93EC01BC0186EA97E00E9443
:101A0000600BFE0101900020E9F73197EC1BFD0B04
:101A1000E138F105F0F487E997E00E944F0B0E944E
:101A2000E20C8091550490915604DC01ED91FC91FB
:101A30000680F781E02D40915F04BE0109958091F9
:101A40005F04811103C081E080935F0481E090E036
:101A500006C087E797E00E940D0B90E080E0DF91E1
:101A6000CF9108950F931F93CF93DF938C01EB01D8
:101A70000E940B048823D9F0B80180914004909112
:101A800041040E9463050E940B04882381F0AE018B
:101A900070E060E02AE080914004909141040E944F
:101AA000210ADF91CF911F910F910C94FF09DF91D3
:101AB000CF911F910F9108950F931F93CF93DF93B1
:101AC0008C01EB01FC01808191810097E1F068813C
:101AD000798161157105A9F0428153812C813D8185
:101AE0004217530770F00E94BA358C819D81F8012E
:101AF000958384831D821C82DF91CF911F910F916A
:101B000008950E94823088819981F80191838083B1
:101B10008A819B81938382838C819D819583848339
:101B2000198218821B821A82E5CFCF93DF93EC01D2
:101B300088819981009711F00E9482301982188261
:101B40001D821C821B821A82DF91CF910895FC01B5
:101B500080819181009711F00C9482300895CF9389
:101B6000DF93FC012681222331F0EC0184819581F1
:101B70000E9482301E82DF91CF910895CF93DF9330
:101B80008091640490916504FC012081222309F175
:101B900020915E042223E9F06DE771E00E94A635F2
:101BA00080916404909165040E94F90CEC0180918D
:101BB0006404909165040E94823010925E040E9439
:101BC000E20C81E090E0CD2B09F480E0DF91CF9131
:101BD000089580E090E0FACFCF93DF93EC018091FD
:101BE0005E04811110C081E080935E0480E890E083
:101BF0000E94E62F909365048093640420E8FC0122
:101C000011922A95E9F76881798180916404909115
:101C100065040E94BA3580916404909165040E9425
:101C2000F90C80916404909165040E9482301092B6
:101C30005E04DF91CF910C94E20CFC01248135818C
:101C4000232B39F421E0FB018081882349F020E037
:101C500007C0808191810E94B13521E0892BB9F7BD
:101C6000822F0895FC0124813581FB014481558137
:101C700024173507E1F4FC0180819181FB0160812B
:101C800071810097D1F061157105A1F4232BC1F08A
:101C9000FC01808190E008C0232B91F0FB01808142
:101CA00090E091958195910921E0892B09F020E040
:101CB000822F08950E94B135F7CF6115710561F744
:101CC00021E0F6CFFC0180819181009711F00C9406
:101CD0000F3160E070E0CB010895CF93DF93FC01FA
:101CE000248135814217530788F4C081D181FB01DB
:101CF00060817181CE01840F951F0E94C1350097CC
:101D000029F08C1B9D0BDF91CF9108958FEF9FEFF2
:101D1000FACF50E040E00C946D0E0F931F93CF93D9
:101D2000DF93EC0188819981009759F02A813B81EA
:101D30002617370730F081E0DF91CF911F910F9187
:101D400008958B016F5F7F4F0E94E034009759F038
:101D5000998388831B830A832C813D81232B59F728
:101D6000FC011082E8CF80E0E7CFEF92FF920F9363
:101D70001F93CF93DF936115710541F480E0DF91EC
:101D8000CF911F910F91FF90EF9008957B01EC018F
:101D9000CB010E943D310097A9F00C811D81080FF5
:101DA000191FB801CE010E948D0E882339F32881B6
:101DB00039818C819D81B701820F931F0E9436313A
:101DC0001D830C8381E0DBCFEF92FF920F931F9373
:101DD000CF93DF936115710541F480E0DF91CF91DE
:101DE0001F910F91FF90EF90089541155105B1F0AB
:101DF0007B01EC010C811D81040F151FB8010E94AD
:101E00008D0E882351F3288139818C819D81B70102
:101E1000820F931F0E94BA351D830C8381E0DECFB1
:101E20006115710551F0FB0101900020E9F7319730
:101E3000AF01461B570B0C94E40E80E00895FB01A4
:101E400044815581608171810C94E40EEF92FF9280
:101E50000F931F93CF93DF93EC017B018A01BA01AB
:101E60000E948D0E81110BC0CE010E94950DCE01F6
:101E7000DF91CF911F910F91FF90EF9008951D83F7
:101E80000C83B701888199810E94BA35F0CFFB019C
:101E900001900020E9F73197AF01461B570B0C94D6
:101EA000260FCF93DF93EC01FB018617970749F0CC
:101EB000608171816115710541F0448155810E94F5
:101EC000260FCE01DF91CF9108950E94950DF9CF95
:101ED000FC011182108213821282158214820C94EA
:101EE000510FCF93DF9300D000D000D0CDB7DEB735
:101EF000BC01CE0101960E94680F80914004909130
:101F000041044D815E8169817A81DC01ED91FC9112
:101F10000280F381E02D0995CE0101960E94A70D64
:101F20000E94FF0926960FB6F894DEBF0FBECDBF04
:101F3000DF91CF910895EF92FF920F931F93CF936C
:101F4000DF9300D000D000D0CDB7DEB77C018B018D
:101F50000E940B048823C1F0B70180914004909146
:101F600041040E94B30AB801CE0101960E94680F95
:101F70000E940B04882321F0CE0101960E94710F6C
:101F8000CE0101960E94A70D26960FB6F894DEBFEB
:101F90000FBECDBFDF91CF911F910F91FF90EF90BA
:101FA0000895EF92FF920F931F93CF93DF93CDB7D6
:101FB000DEB72C970FB6F894DEBF0FBECDBF8C01F5
:101FC0007B010E941804882349F10E94ED0AB701A1
:101FD000CE0107960E94680F0E940B048823D1F05F
:101FE000B80180914004909141040E946305BE01B4
:101FF000695F7F4FCE0101960E94680F0E940B041B
:10200000882321F0CE0101960E94710FCE01019626
:102010000E94A70DCE0107960E94A70D2C960FB621
:10202000F894DEBF0FBECDBFDF91CF911F910F910E
:10203000FF90EF900895FC011182108213821282AA
:10204000158214826115710551F0FB010190002089
:10205000E9F73197AF01461B570B0C94260F0895F3
:10206000CF93DF93CDB7DEB72C970FB6F894DEBFD2
:102070000FBECDBF80915404882309F42BC16CE7B7
:1020800071E0CE0107960E941B108091540480FFDE
:102090001AC08B859C8565E777E0892B11F463E78F
:1020A00077E0CE0107960E94B50E609144047091CE
:1020B0004504CE0107960E94100F80914404909130
:1020C00045040E9482308091540481FF1AC08B85A0
:1020D0009C8561E777E0892B11F46FE677E0CE010C
:1020E00007960E94B50E6091460470914704CE0198
:1020F00007960E94100F80914604909147040E9419
:1021000082308091540482FF1AC08B859C856DE6D5
:1021100077E0892B11F46BE677E0CE0107960E94F9
:10212000B50E6091480470914904CE0107960E9453
:10213000100F80914804909149040E948230809150
:10214000540483FF1AC08B859C8569E677E0892B50
:1021500011F467E677E0CE0107960E94B50E609114
:102160004A0470914B04CE0107960E94100F809193
:102170004A0490914B040E9482308091540484FF61
:102180001AC08B859C8565E677E0892B11F463E6A0
:1021900077E0CE0107960E94B50E60914C047091D5
:1021A0004D04CE0107960E94100F80914C0490912F
:1021B0004D040E9482308091540485FF1AC08B85A3
:1021C0009C8561E677E0892B11F46FE577E0CE011D
:1021D00007960E94B50E60914E0470914F04CE0197
:1021E00007960E94100F80914E0490914F040E9418
:1021F00082308091540486FF1AC08B859C856DE5E2
:1022000077E0892B11F46BE577E0CE0107960E9409
:10221000B50E6091500470915104CE0107960E9452
:10222000100F80915004909151040E94823080914F
:10223000540487FF1AC08B859C8569E577E0892B5C
:1022400011F467E577E0CE0107960E94B50E609124
:10225000520470915304CE0107960E94100F809192
:102260005204909153040E94823065E577E0CE01DC
:1022700007960E94B50E10925404BE01695F7F4F0D
:10228000CE0101960E94680FBE016F5F7F4F8EE303
:1022900097E00E94D10FCE0101960E94A70D8B8579
:1022A0009C8581389105F8F480915904882371F058
:1022B0008091550490915604DC01ED91FC910684C7
:1022C000F785E02DBE01695F7F4F0995CE01079626
:1022D0000E94A70D2C960FB6F894DEBF0FBECDBF9F
:1022E000DF91CF9108958EE197E00E940D0BEECF24
:1022F000AF92BF92CF92DF92EF92FF920F931F9314
:10230000CF93DF936C015B017A01890124173507B4
:1023100020F48F2D7901042F182F6CE771E0C6018E
:102320000E941B10D5011496CD91DC91EC16FD0690
:10233000E0F40C171D0708F4E801D501ED91FC91BC
:102340001197EC0FFD1F108110826D917C916E0D25
:102350007F1DC60161157105A1F00E94470FF501AF
:1023600080819181C80FD91F1883C601DF91CF9159
:102370001F910F91FF90EF90DF90CF90BF90AF90A3
:1023800008950E94950DEBCFEF92FF920F931F934C
:10239000CF93DF9300D000D000D0CDB7DEB77C0163
:1023A0008B010E94890EF8012481280F392F311DDD
:1023B000AC01B701CE0101960E947811BE016F5F9A
:1023C0007F4FC8010E94320E182FCE0101960E9445
:1023D000A70D81E0111101C080E026960FB6F89498
:1023E000DEBF0FBECDBFDF91CF911F910F91FF9048
:1023F000EF900895CF92DF92EF92FF920F931F9389
:10240000CF93DF93CDB7DEB72C970FB6F894DEBF2E
:102410000FBECDBF8C016B010E94260B7C01892B66
:10242000C9F40E949108D8011A966D937D938D93FB
:102430009C931D97C7012C960FB6F894DEBF0FBE74
:10244000CDBFDF91CF911F910F91FF90EF90DF9063
:10245000CF900895F601248135812150310950E053
:1024600040E0B601CE0107960E94781161EC71E060
:10247000CE0107960E94B50E0E949108D8011A96C7
:102480006D937D938D939C931D97BE01695F7F4FE4
:10249000CE0101960E94680FBE016F5F7F4F81EBF6
:1024A00091E00E94D10FCE0101960E94A70DD801A4
:1024B000ED91FC910284F385E02DC80109957C0122
:1024C000892BA1F086EA91E00E944F0BBE01695F63
:1024D0007F4FF801828193810E94960AEE24E39453
:1024E000F12CCE0107960E94A70DA4CF80E991E0C0
:1024F0000E944F0BF6CFCF92DF92EF92FF920F9395
:102500001F93CF93DF93CDB7DEB72C970FB6F89418
:10251000DEBF0FBECDBF8C016B010E94260B7C017C
:10252000892BC9F40E949108D8011A966D937D9366
:102530008D939C931D97C7012C960FB6F894DEBF20
:102540000FBECDBFDF91CF911F910F91FF90EF9004
:10255000DF90CF900895F601248135812150310913
:1025600050E040E0B601CE0107960E94781168E77E
:1025700071E0CE0107960E94B50E0E949108D80125
:102580001A966D937D938D939C931D97BE01695F01
:102590007F4FCE0101960E94680FBE016F5F7F4F93
:1025A00086E691E00E94D10FCE0101960E94A70D10
:1025B000D801ED91FC910284F385E02DC8010995C5
:1025C0007C01892BA1F08BE591E00E944F0BBE01AD
:1025D000695F7F4FF801828193810E94960AEE2401
:1025E000E394F12CCE0107960E94A70DA4CF85E4B9
:1025F00091E00E944F0BF6CFCF92DF92EF92FF92C5
:102600000F931F93CF93DF93CDB7DEB72C970FB601
:10261000F894DEBF0FBECDBF8C016B010E94260B6C
:102620007C01892BC9F40E949108D8011A966D93F8
:102630007D938D939C931D97C7012C960FB6F894AC
:10264000DEBF0FBECDBFDF91CF911F910F91FF90E5
:10265000EF90DF90CF900895F601248135812150CD
:10266000310950E040E0B601CE0107960E94781192
:102670006BE271E0CE0107960E94B50E0E949108B0
:10268000D8011A966D937D938D939C931D97BE01EF
:10269000695F7F4FCE0101960E94680FBE016F5F98
:1026A0007F4F87E191E00E94D10FCE0101960E94F9
:1026B000A70DD801ED91FC910284F385E02DC801AE
:1026C00009957C01892BA1F08CE091E00E944F0BD1
:1026D000BE01695F7F4FF801828193810E94960A53
:1026E000EE24E394F12CCE0107960E94A70DA4CF0F
:1026F00086EF90E00E944F0BF6CF8F929F92AF92A1
:10270000BF92CF92DF92EF92FF920F931F93CF93DE
:10271000DF9300D000D000D0CDB7DEB76C017B01D5
:102720005A01822EBA01C7010E94890EF501048167
:10273000080F192F111D9801AC01B701CE010196A8
:102740000E947811BE016F5F7F4FC5010E94320E5B
:10275000B82ECE0101960E94A70DB11019C06CE7EA
:1027600071E0C6010E941B10C60126960FB6F894B0
:10277000DEBF0FBECDBFDF91CF911F910F91FF90B4
:10278000EF90DF90CF90BF90AF909F908F90089583
:102790000D5F1F4F8820A1F1912C6FE771E0CE01F2
:1027A00001960E941B10A801BE016F5F7F4FC701F9
:1027B0000E946D0E5C01CE0101960E94A70D61E89A
:1027C00071E0CE0101960E941B10A801BE016F5F4F
:1027D0007F4FC7010E946D0E8C01CE0101960E94B1
:1027E000A70D0A151B050CF459C0FFEFAF16BF0665
:1027F00009F4580185010F5F1F4F93948910CDCFC5
:102800006FE771E0CE0101960E941B10A801BE0186
:102810006F5F7F4FC7010E946D0E5C01CE01019674
:102820000E94A70D61E871E0CE0101960E941B1085
:10283000A801BE016F5F7F4FC7010E946D0E4C0162
:10284000CE0101960E94A70D8A149B0464F1EFEF5C
:10285000AE16BE0669F554010F3F100709F47FCF8D
:102860008FEFA816B80609F47ACF9501A801B70131
:10287000CE0101960E947811F60111821082138216
:10288000128215821482BE016F5F7F4FC6010E94C3
:102890005C0DCE0101960E94A70D66CF0F3F100779
:1028A00009F0A7CFA7CFFFEF8F169F06A9F254011B
:1028B0000F3F1007D1F653CFAF92BF92CF92DF9266
:1028C000EF92FF920F931F93CF93DF9300D000D02E
:1028D00000D0CDB7DEB76C017B01A42E0E94890E1B
:1028E000F7010481080F192F111D9801AC01B601E1
:1028F000CE0101960E947811BE016F5F7F4FC70124
:102900000E94320EF82ECE0101960E94A70DF11002
:102910001AC088E1C82E8CEFD82EEE24EA94FE2C43
:10292000C701B60126960FB6F894DEBF0FBECDBF25
:10293000DF91CF911F910F91FF90EF90DF90CF909B
:10294000BF90AF9008950D5F1F4FAA20B1F1B12C39
:102950006FE771E0CE0101960E941B10A801BE0135
:102960006F5F7F4FC6010E946D0E7C01CE01019604
:102970000E94A70D61E871E0CE0101960E941B1034
:10298000A801BE016F5F7F4FC6010E946D0E8C01D2
:10299000CE0101960E94A70D0E151F052CF0FFEF2A
:1029A000EF16FF0621F404C00F3F100709F487015A
:1029B0000F5F1F4FB394AB10CBCF6FE771E0CE0129
:1029C00001960E941B10A801BE016F5F7F4FC601D8
:1029D0000E946D0E7C01CE0101960E94A70D61E858
:1029E00071E0CE0101960E941B10A801BE016F5F2D
:1029F0007F4FC6010E946D0E5C01CE0101960E94C0
:102A0000A70DAE14BF0404F18FEFE816F80609F520
:102A100075010F3F100709F47CCF8FEFE816F80619
:102A200009F477CF9701A801B601CE0101960E9463
:102A30007811CE0101960E94620E6B017C01CE01DD
:102A400001960E94A70D6CCFEFEFAE16BE0609F3FC
:102A500075010F3F100731F75CCF8F929F92AF92B5
:102A6000BF92CF92DF92EF92FF920F931F93CF937B
:102A7000DF9300D000D000D0CDB7DEB77C015B0182
:102A80008A01BA010E94890E6C01F8010481080FC5
:102A9000192F111D0D5F1F4F63E871E0CE010196E4
:102AA0000E941B10A801BE016F5F7F4FC7010E94EB
:102AB0006D0E4C01CE0101960E94A70DCD20C09451
:102AC00049F18FEF8816980629F19401A801B70102
:102AD000CE0101960E947811BE016F5F7F4FC50144
:102AE0000E945C0DCE0101960E94A70D81E0269602
:102AF0000FB6F894DEBF0FBECDBFDF91CF911F910F
:102B00000F91FF90EF90DF90CF90BF90AF909F908C
:102B10008F90089580E0EBCFEF92FF920F931F9379
:102B2000CF93DF93CDB7DEB72C970FB6F894DEBF07
:102B30000FBECDBF8B0180915E04811110C081E07A
:102B400080935E0480E890E00E94E62F90936504F5
:102B50008093640420E8FC0111922A95E9F76CE760
:102B600071E0CE0107960E941B10B801CE010196BC
:102B70000E94680FBE016F5F7F4F88E097E00E9460
:102B8000D10FCE0101960E94A70DA0916404B091CF
:102B90006504FD0101900020E9F731977F01EA1AF1
:102BA000FB0A0E941804882339F00E94ED0AB7013D
:102BB00085EF96E00E94320D0E941804882351F0A0
:102BC000F801E480F5800E94ED0AB70185EE96E0F9
:102BD0000E94320DA0916404B0916504FD01019042
:102BE0000020E9F731979F012A1B3B0BF8018481F4
:102BF0009581F901E80FF91FE038F10590F182ECB9
:102C000096E00E940D0BCE0107960E94A70D0E9430
:102C10009108009160041091610420916204309148
:102C20006304601B710B820B930B64367105810585
:102C3000910550F00E9491086093600470936104C4
:102C400080936204909363042C960FB6F894DEBFD1
:102C50000FBECDBFDF91CF911F910F91FF90EF90ED
:102C600008958C91882349F16FE771E0CE010196B8
:102C70000E941B10F8014481558160817181CE0151
:102C800001960E94E40E811104C0CE0101960E94BB
:102C9000950DBE016F5F7F4FCE0107960E94510FC9
:102CA000CE0101960E94A70D6F8178858091640402
:102CB000909165040E94A635A6CF65E871E0CE012B
:102CC00001960E941B10F801448155816081718139
:102CD000CE0101960E94E40E811104C0CE0101963E
:102CE0000E94950DBE016F5F7F4FCE0107960E9437
:102CF000510FCE0101960E94A70D6F8178858091BA
:102D00006404909165040E94BA357DCFEF92FF92E2
:102D10000F931F93CF93DF93EC01198218821B82CC
:102D20001A821D821C826115710509F18B01CB018C
:102D30000E943D317C01BC01CE010E948D0E8111AB
:102D400009C0CE01DF91CF911F910F91FF90EF90BD
:102D50000C94950DFD82EC82B80188819981DF91F8
:102D6000CF911F910F91FF90EF900C943631DF912E
:102D7000CF911F910F91FF90EF900895EF92FF92E6
:102D80001F93CF93DF93CDB7DEB765970FB6F89457
:102D9000DEBF0FBECDBF7C01162F6DEB77E0CE01FD
:102DA00040960E94861667E871E0CE0101960E9467
:102DB0001B10BE016F5F7F4FCE0140960E941F0F18
:102DC000CE0101960E94A70D69EB77E0CE014096F7
:102DD0000E94B50EB701CE0140960E941F0F11232D
:102DE00009F452C060EB77E0CE0140960E94B50E28
:102DF0001B861A861D861C861F861E864AE0BE011B
:102E00006F5F7F4F812F90E00E947D31BE016F5F29
:102E10007F4FCE010A960E94470FBE01665F7F4F2B
:102E2000CE0140960E941F0FCE010A960E94A70D68
:102E30008091540480FF06C0809144049091450421
:102E40000E9482308C899D8901960E94E62F909382
:102E5000450480934404688979890E94BA35809139
:102E60005404816080935404CE0140960E94A70DC3
:102E700065960FB6F894DEBF0FBECDBFDF91CF9140
:102E80001F91FF90EF9008956EEA77E0CE01409693
:102E90000E94B50ECDCF8F929F92AF92BF92EF92CC
:102EA000FF921F93CF93DF9300D000D000D0CDB717
:102EB000DEB74B015C01142F0E94ED0A0E940B0447
:102EC000882379F162E971E0809140049091410496
:102ED0000E94B30A0E940B04882319F1612F80918C
:102EE0004004909141040E94C60B0E940B04882369
:102EF000C1F06AEA71E080914004909141040E941F
:102F0000B30A0E940B04882361F0809140049091E1
:102F10004104B7FE3DC0B501A4010E946D0A0E94A4
:102F2000FF09812F90E09C012E513D4F79018114C2
:102F30009104A104B10491F18A9489288A288B28EC
:102F4000A1F1F701808167E372E0811102C06EE8B0
:102F500071E0CE0101960E941B10612FCE010196F7
:102F60000E94BE16CE0101960E94A70D0E9430104D
:102F700026960FB6F894DEBF0FBECDBFDF91CF917E
:102F80001F91FF90EF90BF90AF909F908F9008950A
:102F90002AE0B501A4010E94210AC1CF0E94ED0AD6
:102FA00084EB91E00E94BB0ACCCF0E94ED0A87EC33
:102FB00091E0F8CFEF92FF921F93CF93DF93CDB7BD
:102FC000DEB768970FB6F894DEBF0FBECDBF7C01A9
:102FD000162FBC01CE0143960E94680F0E94ED0A95
:102FE000BE016D5E7F4FCE010D960E94680F0E945C
:102FF0000B04882381F162EE71E08091400490918E
:1030000041040E94B30ABE01635F7F4FCE01079661
:103010000E94680F0E940B048823C9F0612F8091E1
:103020004004909141040E94C60BBE01695F7F4F2E
:10303000CE0101960E94680FBE016F5F7F4F87EE41
:1030400091E00E949B0FCE0101960E94A70DCE0138
:1030500007960E94A70DCE010D960E94A70DCE01E6
:1030600043960E94A70D67E372E0C7010E941D0E00
:10307000882339F161E08DE00E94130767E372E075
:10308000CE0101960E941B10612FCE0101960E9475
:10309000BE16CE0101960E94A70D0E943010E12FAE
:1030A000F0E0EE51FD4F81E0808368960FB6F89412
:1030B000DEBF0FBECDBFDF91CF911F91FF90EF908C
:1030C00008956EE871E0C7010E941D0E882369F320
:1030D00060E08DE00E9413076EE871E0CE0101967A
:1030E0000E941B10612FCE0101960E94BE16CE01D8
:1030F00001960E94A70D0E943010E12FF0E0EE51E2
:10310000FD4F81E080831111D0CF1092E202109226
:10311000E3021092E4021092E5021092E602C5CF9B
:103120000F931F93CF93DF93CDB7DEB72C970FB6D6
:10313000F894DEBF0FBECDBF8B0160EC76E0CE0110
:1031400007960E94861669EE71E0CE0101960E94F4
:103150001B10BE016F5F7F4FCE0107960E941F0FAD
:10316000CE0101960E94A70D6CEB76E0CE0107968A
:103170000E94B50EB801CE0107960E941F0F6AEBA0
:1031800076E0CE0107960E94B50E69EE71E0CE01A1
:1031900001960E941B10BE01695F7F4FCE01019610
:1031A0000E948C15CE0101960E94A70DCE010796B4
:1031B0000E94A70D2C960FB6F894DEBF0FBECDBFB0
:1031C000DF91CF911F910F910895EF92FF920F938E
:1031D0001F93CF93DF93CDB7DEB72C970FB6F8943C
:1031E000DEBF0FBECDBF8B017A0168EF73E0CE0169
:1031F00007960E948616B801CE0101960E941B1008
:10320000BE016F5F7F4FCE0107960E941F0FCE0158
:1032100001960E94A70D64EF73E0CE0107960E940D
:10322000B50EB701CE0101960E941B10BE016F5F63
:103230007F4FCE0107960E941F0FCE0101960E947C
:10324000A70D62EF73E0CE0107960E94B50EB8019C
:10325000CE0101960E941B10BE01695F7F4FCE0117
:1032600001960E948C15CE0101960E94A70DCE01F9
:1032700007960E94A70D2C960FB6F894DEBF0FBEDE
:10328000CDBFDF91CF911F910F91FF90EF900895E7
:10329000EF92FF920F931F93CF93DF93EC018885FA
:1032A000811113C080913C0390913D03209129032B
:1032B00030912A038217930741F00E944B0964E67C
:1032C00070E080E090E00E94DA078A819B81DC0157
:1032D000ED91FC910084F185E02D0995009709F4AA
:1032E00069C08E81882321F08C819D810E9482306B
:1032F00081E090E00E94E62F9D838C83CE010E94A6
:10330000AA0910E000E097FD1FC08A309105E1F0A6
:103310008D30910599F07801BFEFEB1AFB0AEC8133
:10332000FD81E00FF11F8083B8016E5F7F4F8C81BC
:103330009D810E94E0349D838C838701CE010E9491
:10334000AA0900381105F9F60F5F1F4FB8018C81EB
:103350009D810E94E0349D838C83080F191FF80122
:10336000319710828A819B81DC01ED91FC9106806E
:10337000F781E02D09956C817D8187EE90E00E94B8
:10338000600B0E94E20C8C819D81FC010190002069
:10339000E9F73197E81BF90BE038F10590F4319724
:1033A000E80FF91F80818D3009F4108281E08E834F
:1033B00081E090E0DF91CF911F910F91FF90EF900E
:1033C00008950E94823090E080E0F4CFCF92DF92A7
:1033D000EF92FF92CF93DF93CDB7DEB7AD970FB6E5
:1033E000F894DEBF0FBECDBFBC01CE0182960E9415
:1033F000680F0E94ED0ABE016E5D7F4FCE010196FF
:103400000E94680FBE016F5F7F4F8DEE91E00E94BA
:103410009B0FCE0101960E94A70DCE0182960E94BD
:10342000A70D63EE73E0CE0188960E94861662E0D7
:1034300072E0CE0101960E941B10BE016F5F7F4FAC
:10344000CE0188960E941F0FCE0101960E94A70D03
:1034500060EE73E0CE0188960E94B50E1BA21AA200
:103460001DA21CA21FA21EA24AE0BE016F5F7F4FD9
:1034700088EC90E00E947D31BE016F5F7F4FCE01EE
:1034800082960E94470FBE016E5D7F4FCE018896E7
:103490000E941F0FCE0182960E94A70D62E072E08B
:1034A000CE0101960E941B10BE01685D7F4FCE01C8
:1034B00001960E948C15CE0101960E94A70DCE01A7
:1034C00088960E94A70D0E9491086B017C0168EE0E
:1034D00073E0CE0188960E9486166AE072E0CE0103
:1034E00001960E941B10BE016F5F7F4FCE01889630
:1034F0000E941F0FCE0101960E94A70D65EE73E09A
:10350000CE0188960E94B50E1BA21AA21DA21CA273
:103510001FA21EA22AE0AE014F5F5F4FC701B60196
:103520000E945B31BE016F5F7F4FCE0182960E9489
:10353000470FBE016E5D7F4FCE0188960E941F0F20
:10354000CE0182960E94A70D6AE072E0CE0101963C
:103550000E941B10BE01685D7F4FCE0101960E9444
:103560008C15CE0101960E94A70DCE0188960E946F
:10357000A70DAD960FB6F894DEBF0FBECDBFDF919D
:10358000CF91FF90EF90DF90CF9008953F924F92B0
:103590005F926F927F928F929F92AF92BF92CF92E3
:1035A000DF92EF92FF920F931F93CF93DF93CDB7EC
:1035B000DEB768970FB6F894DEBF0FBECDBF8C01A3
:1035C00080915904882309F464C080915504909136
:1035D0005604DC01ED91FC910284F385E02D099500
:1035E000F801228133812130310509F468C008F4E3
:1035F00059C02230310511F40C94D72480915E0417
:10360000882379F10E94910800916004109161046F
:103610002091620430916304601B710B820B930B49
:103620006436710581059105E0F080916404909104
:103630006504DC012C91222351F06DE771E00E94BA
:10364000A63580916404909165040E94F90C8091E4
:103650006404909165040E94823010925E040E947E
:10366000E20C68960FB6F894DEBF0FBECDBFDF91B7
:10367000CF911F910F91FF90EF90DF90CF90BF906F
:10368000AF909F908F907F906F905F904F903F9002
:10369000089582E090E0909358048093570490E05E
:1036A00080E09ECF0E942604892B09F4A7CF81E0F9
:1036B00090E0D80113969C938E9312979FCF892BFD
:1036C00011F40C94CE24809159048823B9F085E537
:1036D00094E00E94860980915904882309F4CBC1A3
:1036E0008091550490915604DC01ED91FC91028487
:1036F000F385E02D0995892B09F0C4C1F801868175
:10370000882309F410C7C8010E9498097C01BC01F4
:1037100085EB93E00E94600BD80118968C91189766
:10372000882309F44DC654961C928CE993E00E94BC
:103730004F0B61E172E0CE0143960E941B10B7016E
:10374000CE010D960E941B10BE016D5E7F4FCE0113
:103750000D960E94C411D82E81111BC06AE172E03F
:10376000CE0107960E941B10B701CE0101960E9460
:103770001B10BE01695F7F4FCE0101960E94C411EC
:10378000D82ECE0101960E94A70DCE0107960E9469
:10379000A70DCE010D960E94A70DCE0143960E9463
:1037A000A70DD1100DC661E272E0C7010E94C135BC
:1037B000892B09F4B2C065E272E0C7010E94C135ED
:1037C000892B09F4AAC04BE252E065E272E0C8011D
:1037D0000E94E518F801ED51FF4F0190F081E02DB6
:1037E000309709F009956801B5EECB0ED11CD601D2
:1037F000ED91FC913097C9F1CE01079609958B8523
:103800009C85892B71F124E130E050E040E0BE015D
:10381000695F7F4FCE0101960E947811BE016F5FF4
:103820007F4FCE0107960E945C0DCE0101960E944B
:10383000A70DBE01695F7F4FCE0101960E94680F00
:10384000BE016F5F7F4F8DE893E00E94D10FCE01E4
:1038500001960E94A70DBE01695F7F4FC8010E94BB
:103860009018CE0107960E94A70DF80112860E94BB
:10387000BE0D892B09F049C04BE252E065E272E0CF
:10388000C8010E94E518D601ED91FC913097C9F16D
:10389000CE01079609958B859C85892B71F124E1D2
:1038A00030E050E040E0BE01695F7F4FCE010196FD
:1038B0000E947811BE016F5F7F4FCE0107960E9474
:1038C0005C0DCE0101960E94A70DBE01695F7F4F7E
:1038D000CE0101960E94680FBE016F5F7F4F8EE799
:1038E00093E00E94D10FCE0101960E94A70DBE0168
:1038F000695F7F4FC8010E949018CE0107960E9411
:10390000A70DF80112860E94BE0D8BE693E00E947F
:103910004F0B81E0D80154968C9361E272E0C701AD
:103920000E94C135892BA9F062E372E0C7010E94B1
:10393000C135892B71F04AE352E062E372E0C801BD
:103940000E94E51887E593E00E944F0B81E0F801A3
:10395000848B6CE771E0CE010D960E941B1060E431
:1039600072E0CE0101960E941B10B701CE010796AE
:103970000E941B10AE014F5F5F4FBE01635F7F4F20
:10398000CE0107960E942D15D82ECE0107960E94D3
:10399000A70DCE0101960E94A70DDD2099F0F80138
:1039A000E556FF4F0190F081E02D309719F0CE01E0
:1039B0000D96099587E492E00E944F0B81E0D801B3
:1039C00054968C93CE010D960E94A70D0E94180468
:1039D0008823F9F0F801D0A40E94ED0A0E940B049C
:1039E0008823B9F065E473E080914004909141042C
:1039F0000E9463050E940B04882359F06D2D80916D
:103A00004004909141040E94C60B8FE393E00E9412
:103A10000C0AD12CCC24C394D80198966C90D6145F
:103A200008F0A2C0ED2DF0E0EE0FFF1FE00FF11F38
:103A3000EB5BFF4F0190F081E02DA080B180662DFF
:103A40008AE592E00E940F0C4801B5E48B0E911CB0
:103A5000712C671471F0D401ED91FD914D016081DD
:103A60007181C5010E94B135892B41F5BFEF7B12F1
:103A700027C0D394D1CF82E090E0909358048093F4
:103A800057043CCE8091550490915604DC01ED9191
:103A9000FC910190F081E02D099521E0009709F457
:103AA00020E020935B04892B09F428CE81E08093E9
:103AB0005A0480935D0480935C0420CE7394C9CF34
:103AC0006CE771E0CE010D960E941B10B501CE018E
:103AD00001960E941B10B701CE0107960E941B1091
:103AE000AE014F5F5F4FBE01635F7F4FCE01079610
:103AF0000E942D15B82ECE0107960E94A70DCE016B
:103B000001960E94A70DBB2051F1BE01635F7F4F5C
:103B1000CE0101960E94680FBE016F5F7F4F84E85F
:103B200092E00E94D10FCE0101960E94A70D8BE674
:103B300092E00E944F0BF801C48AE72DEE0FFF0BB5
:103B4000E00FF11FEB5BFF4F0190F081E02D028051
:103B5000F381E02D309719F0CE010D960995CE0135
:103B60000D960E94A70D85CF412C33243394D801A4
:103B70009B969C90491408F0D8C0E42DF0E0EE0F1D
:103B8000FF1FE00FF11FE759FF4F0190F081E02D7B
:103B9000C080D180692D8CE892E00E940F0C580102
:103BA000B9E6AB0EB11C512C951471F0D501ED9115
:103BB000FD915D0160817181C6010E94B135892B43
:103BC00029F4BFEF5B1204C04394D1CF5394ECCFE0
:103BD000B601CE0107960E941B10B701CE010D96CB
:103BE0000E941B10BE01695F7F4FCE010D960E949F
:103BF000890E3C01CB84C80ED92ED11C9601AC0194
:103C0000BE01635F7F4FCE0101960E947811BE0115
:103C10006F5F7F4FCE0107960E94320EB82ECE0105
:103C200001960E94A70DB11031C058E1852E5CEFBE
:103C3000952EAA24AA94BA2CCE010D960E94A70D07
:103C4000CE0107960E94A70DA8E18A16ACEF9A064E
:103C500009F4BACF8DE992E00E944F0BF801348A43
:103C6000E52DEE0FFF0BE00FF11FE759FF4F01901D
:103C7000F081E02D0280F381E02D309709F4A4CF8C
:103C8000B401990C880B990B09959ECFE2E0CE0EFA
:103C9000D11C6FE771E0CE0101960E941B10A601B6
:103CA000BE016F5F7F4FCE010D960E946D0E5C01CD
:103CB000CE0101960E94A70D6DE771E0CE0101963D
:103CC0000E941B10A601BE016F5F7F4FCE010D96B3
:103CD0000E946D0E4C01CE0101960E94A70D8A1420
:103CE0009B040CF46BC6BFEFAB16BB0609F06CC6A9
:103CF00054016720609409F498CF8FEFA816B80696
:103D000009F493CF9501A601BE01635F7F4FCE01F9
:103D100001960E947811CE0101960E94620E4B011D
:103D2000CE0101960E94A70D87CFB12CD8019A969B
:103D3000AC90BA1408F0BAC0EB2DF0E0EE0FFF1F04
:103D4000E00FF11FED59FF4F0190F081E02DC08091
:103D5000D1806A2D86EB92E00E940F0C3801B3E609
:103D60006B0E711C812CA81471F0D301ED91FD91A3
:103D70003D0160817181C6010E94B135892B29F412
:103D8000BFEF8B1204C0B394D1CF8394ECCFB601B4
:103D9000CE0101960E941B10B701CE0107960E942A
:103DA0001B1040E0BE016F5F7F4FCE0107960E945F
:103DB0005C142B01CE0107960E94A70DCE0101963F
:103DC0000E94A70DE8E14E16ECEF5E06E1F2B601A7
:103DD000CE0101960E941B10B701CE0107960E94EA
:103DE0001B1041E0BE016F5F7F4FCE0107960E941E
:103DF0005C14A62ECE0107960E94A70DCE01019657
:103E00000E94A70DB601CE0101960E941B10B701BA
:103E1000CE0107960E941B1042E0BE016F5F7F4FEC
:103E2000CE0107960E945C14962ECE0107960E9442
:103E3000A70DCE0101960E94A70DB601CE010196F5
:103E40000E941B10B701CE0107960E941B1043E091
:103E5000BE016F5F7F4FCE0107960E945C14D62E85
:103E6000CE0107960E94A70DCE0101960E94A70DD4
:103E700087EC92E00E944F0B81E0D80154968C931E
:103E8000E82DEE0FFF0BE00FF11FED59FF4F0190F2
:103E9000F081E02D0280F381E02D309709F473CF9B
:103EA0002D2D492D6A2D842D09956DCF712CF8018A
:103EB00091A4791408F082C0E72DF0E0EE0FFF1F07
:103EC000E00FF11FE35AFF4F0190F081E02DC08019
:103ED000D180692D80EE92E00E940F0C5801FDE523
:103EE000AF0EB11C612C961471F0D501ED91FD91CE
:103EF0005D0160817181C6010E94B135892B29F471
:103F0000BFEF6B1204C07394D2CF6394ECCFB601B1
:103F1000CE0101960E941B10B701CE0107960E94A8
:103F20001B1040E0BE016F5F7F4FCE0107960E94DD
:103F30005C144B01CE0107960E94A70DCE0101969D
:103F40000E94A70DE8E18E16ECEF9E06E1F2B601A5
:103F5000CE0101960E941B10B701CE0107960E9468
:103F60001B1041E0BE016F5F7F4FCE0107960E949C
:103F70005C14D62ECE0107960E94A70DCE010196A5
:103F80000E94A70D81EF92E00E944F0B81E0D801C3
:103F900054968C93E62DEE0FFF0BE00FF11FE35AC2
:103FA000FF4F0190F081E02D0280F381E02D3097EA
:103FB00009F4A9CF6D2D882D0995A5CF512C442446
:103FC0004394F80194A4591408F0C7C0E52DF0E01B
:103FD000EE0FFF1FE00FF11FEF57FF4F0190F08131
:103FE000E02DC080D180692D8AE093E00E940F0C03
:103FF0005801F1E8AF0EB11C612C961471F0D50197
:10400000ED91FD915D0160817181C6010E94B13524
:10401000892B29F4BFEF6B1204C05394D2CF639461
:10402000ECCF6CE771E0CE010D960E941B10B6013B
:10403000CE0101960E941B10B701CE0107960E9487
:104040001B10AE014F5F5F4FBE01635F7F4FCE011C
:1040500007960E942D15D82ECE0107960E94A70D17
:10406000CE0101960E94A70DDD2009F46FC0BE01AC
:10407000635F7F4FCE0101960E94680FBE016F5FA4
:104080007F4F84E393E00E94D10FCE0101960E94FE
:10409000A70D8BE193E00E944F0BF801448A062C98
:1040A000000C7708F301EE0FFF1FE00FF11FEF5731
:1040B000FF4F0190F081E02DC280D38050E040E0BE
:1040C000342E5A01FFEFAF1ABF0A9501BE01635F9C
:1040D0007F4FCE0101960E94781167E472E08981DA
:1040E0009A810E94B1354C01CE0101960E94A70D24
:1040F0008928C1F4C114D104A9F082E0381659F11D
:10410000831530F0A1E088E03A1651F080E108C054
:10411000B3E082E03B1621F0E4E081E03E12F6CF0E
:10412000F6010995A5014530510551F6F301EE0F51
:10413000FF1FE00FF11FEF57FF4F0190F081E02DBF
:104140000480F581E02D309709F00995CE010D9698
:104150000E94A70D62CF84E0E3CF69E472E0CE0154
:1041600007960E941B10B701CE0101960E941B10FA
:1041700040E0BE01695F7F4FCE0101960E945C1452
:104180004B01CE0101960E94A70DCE0107960E9419
:10419000A70DF8E18F16FCEF9F0609F465C069E4EE
:1041A00072E0CE0107960E941B10B701CE01019666
:1041B0000E941B1040E0BE01695F7F4FCE01019657
:1041C0000E945C14D80156967C936E935597CE014D
:1041D00001960E94A70DCE0107960E94A70D69E4E3
:1041E00072E0CE0107960E941B10B701CE01019626
:1041F0000E941B1042E0BE01695F7F4FCE01019615
:104200000E945C14F801728F618FCE0101960E94AA
:10421000A70DCE0107960E94A70D69E472E0CE01BA
:1042200007960E941B10B701CE0101960E941B1039
:1042300041E0BE01695F7F4FCE0101960E945C1490
:10424000D80158967C936E935797CE0101960E94A1
:10425000A70DCE0107960E94A70D89E392E00E9468
:104260004F0B81E0F801848B6EE472E0CE0107967B
:104270000E941B10B701CE0101960E941B1020E086
:10428000AE01495F5F4FBE016F5F7F4FCE01439626
:104290000E947D13CE0101960E94A70DCE010796C4
:1042A0000E94A70D6CE771E0CE0143960E941D0E9F
:1042B000811175C06EE472E0CE0107960E941B105A
:1042C000B701CE0101960E941B1020E0AE01495FAC
:1042D0005F4FBE016F5F7F4FCE010D960E947D1331
:1042E0008D859E85009709F43FC10E940B31D8014E
:1042F0005B966D937D938D939C935E97CE010D9607
:104300000E94A70DCE0101960E94A70DCE0107962F
:104310000E94A70D6EE472E0CE0107960E941B106A
:10432000B701CE0101960E941B1021E0AE01495F4A
:104330005F4FBE016F5F7F4FCE010D960E947D13D0
:104340008D859E85009709F413C10E940B31F801F9
:10435000678F70A381A392A3CE010D960E94A70D33
:10436000CE0101960E94A70DCE0107960E94A70DCF
:104370008CE292E00E944F0B81E0D80154968C931E
:1043800083E292E00E944F0B85E594E00E9486094B
:104390000E949108F80163A374A385A396A3CE019C
:1043A00043960E94A70DD80154968C91882341F022
:1043B00083E292E00E944F0B85E594E00E9486091B
:1043C000F8018681882309F4AEC0808191810E9422
:1043D0007F09BC01CE010D960E941B10BE01635FD8
:1043E0007F4FCE0101960E94680FBE016F5F7F4F25
:1043F0008AEC93E00E94D10FCE0101960E94A70D96
:1044000061E172E0CE0101960E941B10BE016F5F58
:104410007F4FCE010D960E94C411F82ECE01019659
:104420000E94A70DFF2009F455C06CE771E0CE0192
:1044300007960E941B1061E272E0CE0101960E9475
:104440001B10AE014F5F5F4FBE01695F7F4FCE0112
:104450000D960E942D15F82ECE0101960E94A70DF3
:10446000FF2009F441C1F801E055FF4F808191819F
:10447000892BB9F4329680819181892B91F40E9425
:104480000B04882371F00E94ED0A62EC73E08091C6
:104490004004909141040E94630582E592E00E94ED
:1044A000BB0A65E272E0CE0107960E941D0E8823CA
:1044B00009F462C0F801EE54FF4F0190F081E02D45
:1044C00060E070E0CB01309709F06BC0CE01079639
:1044D0000E94A70DCE010D960E94A70D61E172E02A
:1044E000CE0107960E941B10D8018D919C910E94CD
:1044F0007F09BC01CE0101960E941B10BE01695FBD
:104500007F4FCE0101960E94C411F82ECE01019674
:104510000E94A70DCE0107960E94A70DFF2019F05B
:10452000C8010E948609F8018781882309F466C8BA
:104530001782E188F288E114F10409F45FC88081F0
:1045400091810E947F09BC01CE0101960E941B103F
:10455000CE010196F7010995CE0101960E94A70DA3
:10456000C8010E9486094AC860E070E0CB01BFCE56
:1045700060E070E0CB01EBCE67E871E0CE0107961A
:104580000E941D0E882379F0F801EE54FF4F019030
:10459000F081E02D61E070E080E090E0309709F478
:1045A00095CF099593CF6BE672E0CE0107960E94F6
:1045B0001D0E882369F0F801EE54FF4F0190F08141
:1045C000E02D62E070E080E090E0309751F77ECF20
:1045D0006FE672E0CE0107960E941D0E8111EBCFAF
:1045E00063E772E0CE0107960E941D0E882369F0F2
:1045F000F801EE54FF4F0190F081E02D64E070E08F
:1046000080E090E0309769F661CF6BE772E0CE0111
:1046100007960E941D0E882371F0F801EE54FF4F9B
:104620000190F081E02D65E070E080E090E030974F
:1046300009F0B7CF4BCF62E872E0CE0107960E9437
:104640001D0E882371F0F801EE54FF4F0190F081A8
:10465000E02D66E070E080E090E0309709F0A1CFB7
:1046600035CF67E872E0CE0107960E941D0E8823C1
:1046700071F0F801EE54FF4F0190F081E02D67E0FA
:1046800070E080E090E0309709F08BCF1FCF6CE8AE
:1046900072E0CE0107960E941D0E882371F0F8018A
:1046A000EE54FF4F0190F081E02D68E070E080E073
:1046B00090E0309709F075CF09CF62EE71E0CE013E
:1046C00007960E941D0E882309F400CFF801EE54CE
:1046D000FF4F0190F081E02D63E070E080E090E01A
:1046E000309709F05ECFF2CE61E972E0CE0101961B
:1046F0000E941B10BE016F5F7F4FCE010D960E947E
:10470000C411F82ECE0101960E94A70DFF2009F4D6
:10471000DDCE67E871E0CE0101960E941B10AE016C
:104720004F5F5F4FBE01695F7F4FCE010D960E94C4
:104730002D15F82ECE0101960E94A70DF801E05626
:10474000FF4FF1101AC06BE672E0CE0101960E9495
:104750001B10AE014F5F5F4FBE01695F7F4FCE01FF
:104760000D960E942D15F82ECE0101960E94A70DE0
:10477000FF2069F0F801EE55FF4F0190F081E02D28
:10478000309709F4A3CECE01079609959FCE6FE628
:1047900072E0CE0101960E941B10AE014F5F5F4F89
:1047A000BE01695F7F4FCE010D960E942D15F82E38
:1047B000CE0101960E94A70DF110DCCF6BE772E0ED
:1047C000CE0101960E941B10AE014F5F5F4FBE01EC
:1047D000695F7F4FCE010D960E942D15F82ECE01F8
:1047E00001960E94A70DF801E855FF4FF110C5CFC3
:1047F00065E972E0CE0101960E941B10AE014F5F89
:104800005F4FBE01695F7F4FCE010D960E942D154F
:10481000F82ECE0101960E94A70DFF2079F0F80135
:10482000E655FF4FE080F180E114F10409F44ECE2B
:10483000CE0107960E94620EF701B3CE6EE972E0D8
:10484000CE0101960E941B10AE014F5F5F4FBE016B
:10485000695F7F4FCE010D960E942D15F82ECE0177
:1048600001960E94A70DF801E655FF4FF1104EC0CA
:1048700063E772E0CE0101960E941B10AE014F5F0C
:104880005F4FBE01695F7F4FCE010D960E942D15CF
:10489000F82ECE0101960E94A70DF801E455FF4FB6
:1048A000F110C0CF69EA72E0CE0101960E941B10A0
:1048B000AE014F5F5F4FBE01695F7F4FCE010D9626
:1048C0000E942D15F82ECE0101960E94A70DF80129
:1048D000E255FF4FF110A6CF63EB72E0CE010196D7
:1048E0000E941B10AE014F5F5F4FBE01695F7F4F9B
:1048F000CE010D960E942D15F82ECE0101960E9434
:10490000A70DFF20A9F0F801E255FF4FE080F180EC
:10491000E114F10409F4DACDCE0107960E94620E8B
:1049200090958095709561957F4F8F4F9F4F84CF65
:1049300062EE71E0CE0101960E941B10AE014F5F46
:104940005F4FBE01695F7F4FCE010D960E942D150E
:10495000F82ECE0101960E94A70DF801EC55FF4FED
:10496000F1100BCF6FEB72E0CE0101960E941B108D
:10497000AE014F5F5F4FBE01695F7F4FCE010D9665
:104980000E942D15F82ECE0101960E94A70DFF2042
:1049900009F49CCDF801EA55FF4FEFCE0E94380490
:1049A000D80113961C921E9212970C94FE1A0E9424
:1049B0003804F801138212820C94FE1AEFEF8E165F
:1049C0009E0609F496C954016720609409F09AC9BB
:1049D0002CC91F920F920FB60F9211248F939F93A1
:1049E0008091E1009091E100937F9093E10083FF3B
:1049F0000FC01092E90091E09093EB001092EC0050
:104A000092E39093ED0010924B0398E09093F000A6
:104A100082FF22C093E09093E9009091F2009923E5
:104A200019F09AE39093E80090913903992341F0AB
:104A300090913903915090933903911101C05D9A7F
:104A400090914A03992341F090914A039150909399
:104A50004A03911101C0289A84FF18C08091E20096
:104A60008E7E81608093E2008091E1008F7E809352
:104A7000E10080913A038E7E806180933A039F919A
:104A80008F910F900FBE0F901F90189580FFF7CF5A
:104A90008091E2008E7E80618093E2008091E1004F
:104AA0008E7E8093E10080913A038E7E8160E5CF17
:104AB0001F920F920FB60F921124CF92DF92EF92B6
:104AC000FF920F931F932F933F934F935F936F9397
:104AD0007F938F939F93AF93BF93EF93FF93CF9366
:104AE000DF93CDB7DEB76C97DEBFCDBF1092E90084
:104AF0008091E80083FF25C068E0CE0145960E94C2
:104B0000560582EF8093E8008D8987FF39C0909128
:104B1000E80090FFFCCF982F907609F034C19E8971
:104B20004F89588D2F89F88C911131C0803861F5EB
:104B300080913B038093F1001092F1008EEF8093FF
:104B4000E8006C960FB6F894DEBF0FBECDBFDF91C4
:104B5000CF91FF91EF91BF91AF919F918F917F91F5
:104B60006F915F914F913F912F911F910F91FF9006
:104B7000EF90DF90CF900F900FBE0F901F90189581
:104B80009EEF9093E800C7CF1092F100D5CF9130FF
:104B900059F48111D3CF4130510581F680913B0307
:104BA0008D7F80933B03CACF933049F48111C6CFE8
:104BB0004130510519F680913B038260F2CF953068
:104BC00041F48091E80080FFFCCF20682093E3004F
:104BD000B5CF963009F0A9C00B8D1C8D22E0109244
:104BE000E9001092370310923603F2122EC0109291
:104BF0003503109234030E9425051F8299E09983A2
:104C0000FA8291E09E8390EA98879AEF99872091A3
:104C1000360330913703275F3F4F3C832B838D83CF
:104C20001092E90010923703109236031093350367
:104C30000093340349E050E0BE016F5F7F4F80E096
:104C40000E94FF040E94250579CF1093350300933D
:104C500034030E948904DC0112960D911C91011508
:104C6000110509F451C1D801ED91FC910480F58141
:104C7000E02DBE016B5E7F4FC8010995009709F0DA
:104C80003EC1F80100851185EACFF3E0FF120EC0A6
:104C90008F89882309F440C0823061F440E86BE0DA
:104CA0008BE994E00E94CC04811148CF81E280938B
:104CB000EB0047CF813029F440E86BE08FE894E0C7
:104CC000F1CF833099F70E948904DC011296ED90B0
:104CD000FC908E010F5F1F4F6801E114F10479F021
:104CE000D701ED91FC910680F781E02DB801C70155
:104CF0000995080F111DF701E084F184EECFD8016A
:104D00001C92F60101900020E9F73197BF016C1960
:104D10007D0940E0C601C6CF69E774E0FB0144911C
:104D200050E080E80E94FF0409CF973009F4BECF1D
:104D3000983021F481E08093F10000CF993009F0A0
:104D4000FDCE837009F0B2CFE0E2F1E081E031E026
:104D500096E32191222371F08093E9003093EB00D8
:104D6000DF0111972C912093EC009093ED008F5F61
:104D7000873079F78EE78093EA001092EA008F89F6
:104D800080934B03DBCE8B8D9C8D1092E9001092AB
:104D90003703109236039093350380933403898D43
:104DA000811192C08E899D89913A49F4813209F02E
:104DB0007DCF47E050E064E071E080E0B3CF913216
:104DC00009F074CF833269F48F89988DB0E0A0E048
:104DD0008093000190930101A0930201B09303011D
:104DE000ADCE803269F48091E80082FFFCCF67E0AD
:104DF00084E091E00E9456058BEF8093E8009ECE00
:104E0000823209F09BCE8F8980930B01EEEFFFE792
:104E1000859194918B3F9C4D51F1E0E0F8E08091B9
:104E2000040190910501A0910601B0910701803B1A
:104E30009440A105B105F1F480910B0180FD1AC0E9
:104E4000EE3F8AE0F80789F587E797E7918380834B
:104E5000809160008093380388E19BE00FB6F8945E
:104E6000A895809360000FBE9093600067CEEEEF30
:104E7000FAE0D5CF808191818737974709F05ECEE0
:104E8000A8958091600088618093600080913803CC
:104E900080936000EE3F2AE0F20789F08091FE0ADD
:104EA0009091FF0A9183808349CE808191818737D9
:104EB000980751F29093FF0A8093FE0AC5CF109293
:104EC000FF0A1092FE0A3ACE0E948904DC01129673
:104ED0000D911C910115110509F4E8CED801ED9151
:104EE000FC910190F081E02DBE016B5E7F4FC80107
:104EF0000995811123CEF80100851185EBCF181695
:104F000019060CF41BCED2CEF1E0FF12BECE6DE737
:104F100074E004CF1F920F920FB60F9211242F93BB
:104F20003F934F935F936F937F938F939F93AF9331
:104F3000BF93EF93FF938CE493E00E940506FF91EB
:104F4000EF91BF91AF919F918F917F916F915F9101
:104F50004F913F912F910F900FBE0F901F9018957A
:104F60001F920F920FB60F9211242F938F939F933E
:104F7000EF93FF93E0915C03F0915D038081E091FA
:104F80006203F091630382FD1BC0908180916503F1
:104F90008F5F8F7320916603821741F0E091650364
:104FA000F0E0E45BFC4F958F80936503FF91EF91F8
:104FB0009F918F912F910F900FBE0F901F9018957A
:104FC0008081F4CF1F920F920FB60F9211242F936E
:104FD0003F938F939F93AF93BF9380912C039091B6
:104FE0002D03A0912E03B0912F0330912B0323E0CA
:104FF000230F2D3758F50196A11DB11D20932B03CA
:1050000080932C0390932D03A0932E03B0932F0332
:105010008091300390913103A0913203B09133031A
:105020000196A11DB11D8093300390933103A0938D
:105030003203B0933303BF91AF919F918F913F9112
:105040002F910F900FBE0F901F90189526E8230FF9
:105050000296A11DB11DD2CF1F920F920FB60F92D3
:1050600011242F933F934F935F936F937F938F936D
:105070009F93AF93BF93EF93FF93E0912903F09138
:105080002A03309749F0A685B7858585968D91FFCF
:1050900014C09C918923A1F4FF91EF91BF91AF912E
:1050A0009F918F917F916F915F914F913F912F9140
:1050B0000F900FBE0F901F9018959C91892361F758
:1050C000A389B4899C918589809589238C9386894D
:1050D00097890197F1F7608D718DA685B785558504
:1050E00038E020E0CB010197F1F7822F90E0959511
:1050F0008795282F4C91452309F02068315091F76E
:10510000868D81FD20958091270390E001968F7315
:10511000992730912803381799F0A0912703B0E020
:10512000A951BD4F2C9380932703828D938D0197B6
:10513000F1F7A389B4898C919589892B8C93ACCF95
:10514000868D8160868FF1CFECE4F3E013821282CA
:1051500088EE93E0A0E0B0E084839583A683B783D4
:105160002CE331E0318320832DEC30E03587248738
:105170002CEC30E03787268728EC30E0318B208B11
:1051800029EC30E0338B228B2AEC30E0358B248BFA
:105190002EEC30E0378B268B118E128E138E148EF0
:1051A000E9EEF3E01382128284839583A683B783AA
:1051B0008EE491E0918380838FEF9FEF95878487C2
:1051C000E9E3F4E080E691E0918380831282138228
:1051D00014821582EFE3F4E0108214821382E5E575
:1051E000F4E01382128214821582168217821086CE
:1051F000118681E08287128A118A138A148A17A283
:1052000010A611A612A613A614A687E090E00E948D
:10521000E62F9093EF048093EE0460E472E00E9426
:10522000BA351092F1041092F0041092F204109228
:10523000F4041092F3041092F6041092F504109204
:10524000F8041092F7041092FA041092F9041092E4
:10525000FC041092FB041092FE041092FD041092C4
:1052600000051092FF0410920205109201051092A1
:105270000405109203051092060510920505109280
:1052800008051092070510920A0510920905109260
:105290000C0510920B0510920E0510920D05109240
:1052A000100510920F051092120510921105109220
:1052B0001405109213051092160510921505109200
:1052C00018051092170510921A05109219051092E0
:1052D0001C0510921B0510921E0510921D051092C0
:1052E000200510921F0510922205109221051092A0
:1052F0002405109223051092260510922505109280
:1053000028051092270510922A051092290510925F
:105310002C0510922B058CE390E0A0E0B0E0809388
:105320002D0590932E05A0932F05B0933005109274
:10533000310510923205109233051092340584E045
:1053400080933505109239051092380510923B056F
:1053500010923A0510923D0510923C0510923F05BF
:1053600010923E051092410510924005109243059F
:105370001092420510924505109244051092460580
:1053800010924705109248051092490586E691E073
:1053900090934B0580934A0510924D0510924C0551
:1053A000109250051092510510925205109253051B
:1053B00010925405109255051092560510925705FB
:1053C000109254040895CF93DF93CDB7DEB7EC97D6
:1053D0000FB6F894DEBF0FBECDBF789484B582605F
:1053E00084BD84B5816084BD85B5826085BD85B589
:1053F000816085BD80916E00816080936E00109207
:105400008100809181008260809381008091810081
:105410008160809381008091800081608093800012
:1054200080919100826080939100809191008160D1
:105430008093910080919000816080939000809192
:10544000C10084608093C1008091C100826080931C
:10545000C1008091C10081608093C1008091C30030
:1054600081608093C3008091C00082608093C000FF
:105470008091C20081608093C20080917A00846034
:1054800080937A0080917A00826080937A00809184
:105490007A00816080937A0080917A00806880939E
:1054A0007A0010924B0310923B0310923A038091C2
:1054B000D70081608093D70080EA8093D80089B5B7
:1054C000806189BD89B5826089BD09B400FEFDCFC8
:1054D00061E070E080E090E00E94DA078091D800FF
:1054E0008F7C80618093D8008091E000807F8093E2
:1054F000E0008091E1008E7E8093E1008DE080935A
:10550000E200559A209A8FEF9FEF9093F6038093D5
:10551000F50381E080933F0489EE93E0909341048A
:105520008093400481E090E0909343048093420490
:1055300061E08DE00E94840760E08DE00E94130727
:105540000E94ED0A8FE996E00E940C0A0E94ED0A83
:105550000E940B048823E1F165E976E08091400424
:10556000909141040E9463050E940B04882381F1FD
:105570006AE372E080914004909141040E94B30A72
:105580000E940B04882321F163E976E080914004B6
:10559000909141040E9463050E940B048823C1F08E
:1055A00061E676E080914004909141040E94630599
:1055B0000E940B04882361F066E376E0809140044A
:1055C000909141040E9463058FEF95E00E940C0AC0
:1055D00064E670E080E090E00E94DA078FE190E0FE
:1055E0000E94E62F8C01DC0113961C921E921297EA
:1055F00088EE93E0A0E0B0E0F80184839583A68371
:10560000B7838AE291E091838083178A168A118E8C
:10561000108E138E128E158E148E668D6E7F6D7F9A
:10562000668F6695617081E0682783E00E941307AA
:1056300061E083E00E948407E3EEF5E0E491D801A5
:105640005096EC93E4ECF5E0E491F0E0EE0FFF1FF0
:10565000ED54FA4F85919491F801928B818B60E023
:1056600082E00E948407D8015E968C9181FD04C07F
:1056700061E082E00E94130782E0F8018487E2EE95
:10568000F5E0E491D8011D96EC93E3ECF5E0E491AC
:10569000F0E0EE0FFF1FEB55FA4F85919491F80162
:1056A0009787868710933D0300933C03138E128ED9
:1056B000118E108E178A168A8DE991E0958F848F4E
:1056C000C8010E944B0910934D0500934C0584E6D8
:1056D00090E0A0E0B0E0F80184839583A683B783CF
:1056E000109252058AE495E09093560480935504F5
:1056F00081E0809359046CE071E0CE01C7960E946E
:105700001B100E94260465EC72E0CE0101960E94F7
:105710001B100E9491086B017C01CE0101960E9432
:10572000EC0D0E94BE0D0E9491086C197D098E0936
:105730009F09683E73408105910508F0EDC185E53C
:1057400094E00E94C61A80915B04882309F4DDC1AD
:1057500085E594E00E94980968EC72E00E94B135FA
:10576000892B09F0A7C185E594E00E9498098C0176
:105770000E94ED0AB80186E595E00E94D00A85E511
:1057800094E00E949809FC0101900020E9F731970C
:105790008F01081B190B0E94ED0AB8018DE495E0FA
:1057A0000E94320D0E94ED0A62E070E084E495E010
:1057B0000E94320D85E594E00E948609CE01019693
:1057C0000E94A70D62EA75E0CE01C1960E9486167E
:1057D00060EA75E0CE01C1960E94B50E63E975E0FE
:1057E000CE01C1960E94B50E61E975E0CE01C19669
:1057F0000E94B50E6EE875E0CE01C1960E94B50E0E
:10580000BE01695C7F4FCE01C1960E941F0F64E606
:1058100070E080E090E00E94DA07CE01C1960E941D
:10582000EC0D0E94BE0D80E2A82E93E0292E312CB3
:1058300022E0422E512C30E3B32E61E070E080E094
:1058400090E00E94DA0785E594E00E94C61A8091F4
:105850005B04882391F383E491E00E94E62F6C01BE
:10586000909337058093360585E594E00E9498096A
:10587000BC01CE018B960E941B10BE01655D7F4F5F
:10588000CE0101960E94680FBE016F5F7F4F84E1D9
:1058900095E00E94D10FCE0101960E94A70D7601DE
:1058A00033E0E30EF11CD701EA2D1D92EA95E9F7EA
:1058B000D6011D921C926BEC72E0CE0101960E9403
:1058C0001B10BE016F5F7F4FCE018B960E94890E29
:1058D0008C01CE0101960E94A70D0F3F1F4F09F4C6
:1058E00059C36DEC72E0CE0101960E941B10BE01FF
:1058F0006F5F7F4FCE018B960E94C411182FCE018F
:1059000001960E94A70D112309F444C36DEC72E0C7
:10591000CE0101960E941B10BE016F5F7F4FCE012A
:105920008B960E94890E8C01CE0101960E94A70DD4
:105930000F3F100709F0F7C0D6011D921C92CE014F
:105940008B960E94A70D0E941804882309F1E0910C
:105950003605F0913705008111810E94ED0A0E9401
:105960000B048823A9F063E875E0809140049091CE
:1059700041040E9463050E940B04882349F0B8018A
:1059800080914004909141040E94390C0E94FF09CB
:1059900060913605709137056D5F7F4FCE0101969E
:1059A0000E941B10BE016F5F7F4F89E795E00E9448
:1059B000D10FCE0101960E94A70DE0913605F0911E
:1059C000370562818EE695E00E940F0C0E940B0461
:1059D000882391F00E94ED0A67EA74E08091400408
:1059E000909141040E946305809142049091430488
:1059F000892B11F00E94B60C609136057091370525
:105A00006D5F7F4FCE0101960E941B1065ED72E025
:105A1000CE0101960E941D0E882341F0E0913605CB
:105A2000F091370511E08281823009F010E0CE015B
:105A300001960E94A70D112321F082E695E00E94B5
:105A40004F0B80913605909137050E9482301123CB
:105A500009F4F3CECE01C1960E94A70DCE01C796E0
:105A60000E94A70D0E94ED0A80EA96E00E940C0AAF
:105A700086EE99E190936704809366048AED97E13E
:105A80009093F4048093F3048BE497E190930605DC
:105A90008093050500E010E085E594E00E94C61AB9
:105AA00001151105C9F30E94F1058823A9F30E948D
:105AB0000000F2CF85E594E00E9498098C010E94D5
:105AC000ED0AB80188E395E00E94D00A85E594E0EC
:105AD0000E949809FC0101900020E9F731978F019D
